:100000000C94FE000C941F010C941F010C941F0112
:100010000C941F010C941F010C941F010C941F01E0
:100020000C941F010C941F010C941F010C941F01D0
:100030000C941F010C941F010C941F010C941F01C0
:100040000C941F010C941F010C941F010C941F01B0
:100050000C941F010C941F010C941F010C941F01A0
:100060000C941F010C941F010C941F010C941F0190
:100070000C941F010C941F010C941F010C941F0180
:100080000C941F010C941F010C941F010C941F0170
:100090000C941F010C941F010C941F010C941F0160
:1000A0000C941F010C941F010C941F010C941F0150
:1000B0000C941F010C941F010C941F010C941F0140
:1000C0000C941F010C941F010C941F010C941F0130
:1000D0000C941F010C941F010C941F010C941F0120
:1000E0000C941F010C941F010C941F010C941F0110
:1000F0000C941F010C941F010C941F010C941F0100
:100100000C941F010C941F010C941F010C941F01EF
:100110000C941F010C941F010C941F010C941F01DF
:100120000C941F010C941F010C941F010C941F01CF
:100130000C941F010C941F010C941F010C941F01BF
:100140000C941F010C941F010C941F010C941F01AF
:100150000C941F010C941F010C941F010C941F019F
:100160000C941F010C941F010C941F010C941F018F
:100170000C941F010C941F010C941F010C941F017F
:100180000C941F010C941F010C941F010C941F016F
:100190000C941F010C941F010C941F010C941F015F
:1001A0000C9481010C941F010C941F010C941F01ED
:1001B0000C941F010C941F010C941F010C941F013F
:1001C0000C941F010C941F010C941F010C941F012F
:1001D0000C941F010C941F010C941F010C947001CE
:1001E0000C941F010C941F010C941F010C941F010F
:1001F0000C941F010C941F010C941F0111241FBEAD
:10020000CFEFCDBFDFE3DEBF00E00CBF10E2A0E028
:10021000B0E2EEE6FBE000E00BBF02C007900D92FB
:10022000AC34B107D9F720E2ACE4B0E201C01D92D2
:10023000A535B207E1F70E9448010C94B5050C946E
:1002400000000F931F93CF93DF9388E08093A50660
:100250008093A10684E08093A6068093A206C0EA5C
:10026000DBE088E18C8383E08D8300E018E428EEF6
:1002700031E040E052EC61E070E080EA9BE00E94F7
:10028000430480E38B83DF91CF911F910F910895F9
:10029000C1E0C093600688E2809390068093910647
:1002A00080E88093A206C093B7068093AA06C09305
:1002B000A90687E08093A20078940E94CA01109258
:1002C000A00483E28093A50488E08093A1041092A7
:1002D000A204C093A4040E94E0010E942101FFCF68
:1002E0001F920F920FB60F9211248F938091A00B43
:1002F00081E0809367068F910F900FBE0F901F9043
:1003000018951F920F920FB60F9211240BB60F92F1
:100310002F933F934F935F936F937F938F939F930D
:10032000AF93BF93EF93FF9381E0809367068EE4D2
:1003300090E20E94FF018EE490E20E942B038EE483
:1003400090E20E94C4028CE490E20E9439028CE4A4
:1003500090E20E947A0267E470E280EA9BE00E94E9
:10036000230567E470E280EA9BE00E942305FF9189
:10037000EF91BF91AF919F918F917F916F915F911D
:100380004F913F912F910F900BBE0F900FBE0F908A
:100390001F90189582E0809350008091510081FF5A
:1003A000FCCF88ED84BF81E0809340000895982FB2
:1003B00092959F708F702AE0929F800D112408956E
:1003C000CF92EF92FF920F93CF93DF931F92CDB70F
:1003D000DEB71982CC24C394CE0101967C0101E0E2
:1003E0002EE04AE060ED80EA94E00E940E040F9057
:1003F000DF91CF910F91FF90EF90CF900895CF9222
:10040000DF92EF92FF920F931F93CF93DF93CDB7BD
:10041000DEB72797CDBFDEBFD82E192F87E0C82EB5
:10042000CE0101967C0101E020E04AE060ED80EA27
:1004300094E00E94C503ED2CF12E8E010F5F1F4F3B
:1004400097E0D92ED00EF80181918F010E94D7013B
:10045000F70181937F01D012F6CF2796CDBFDEBF83
:10046000DF91CF911F910F91FF90EF90DF90CF9090
:100470000895AF92BF92CF92EF92FF920F93CF93D6
:10048000DF931F921F92CDB7DEB75C0182E0C82ECA
:10049000CE0101967C0101E021E14AE060ED80EAB5
:1004A00094E00E94C5038981F50180839A81929529
:1004B0009695969593709183CC24C3942EE04AE050
:1004C00060ED80EA94E00E94C5038981806289839F
:1004D0002EE04AE060ED80EA94E00E940E040F9066
:1004E0000F90DF91CF910F91FF90EF90CF90BF9041
:1004F000AF9008950F931F93CF93DF9300D01F9277
:10050000CDB7DEB78C01198282E08A8385E08B83C8
:1005100087E08C836CE170E280EA9BE00E94230517
:10052000F8016081062E000C770B4AE050E080EA6B
:100530009BE00E9435056DE270E280EA9BE00E943C
:100540002305F80130812181CE010196FC0137FDA0
:1005500004C0E20FF11D608103C0E21BF109638159
:1005600070E04AE050E080EA9BE00E9435056FE2CF
:1005700070E280EA9BE02496CDBFDEBFDF91CF9191
:100580001F910F910C942305CF93DF93EC0167E447
:1005900070E280EA9BE00E94230562E370E280EA59
:1005A0009BE00E9423058E818A3030F463E370E281
:1005B00080EA9BE00E9423056E8170E04AE050E0F3
:1005C00080EA9BE00E94350565E370E280EA9BE0EB
:1005D0000E9423058D818A3030F463E370E280EA63
:1005E0009BE00E9423056D8170E04AE050E080EAC4
:1005F0009BE00E94350565E370E280EA9BE00E9483
:1006000023058C818A3030F463E370E280EA9BE05A
:100610000E9423056C8170E04AE050E080EA9BE094
:100620000E94350567E370E280EA9BE00E942305A3
:100630006B8184E0689FB00111246450704E80EAA1
:100640009BE00E94230567E470E280EA9BE0DF9173
:10065000CF910C942305CF93DF93EC016AE370E212
:1006600080EA9BE00E9423058A818A3030F463E3AC
:1006700070E280EA9BE00E9423056A8170E04AE014
:1006800050E080EA9BE00E9435056AE470E280EA6F
:100690009BE00E94230589818A3030F463E370E295
:1006A00080EA9BE00E942305698170E04AE050E007
:1006B00080EA9BE00E9435056AE470E280EA9BE0F4
:1006C0000E94230588818A3030F463E370E280EA77
:1006D0009BE00E942305688170E04AE050E080EAD8
:1006E0009BE0DF91CF910C943505FC01668384E695
:1006F000489FA0011124848141155105B9F0982F1C
:100700009874983411F466830AC0982F90759035C8
:1007100021F487E0838383E00895807C61F48AE696
:100720008A95F1F700C041505109E5CF85FF05C01A
:1007300087E0838302C080E0089582E00895FC0191
:100740006783848186FFFDCF848186FF06C0848114
:100750008295817091E0892701C080E081700895C1
:10076000FC0184818C708C3071F0848187FFFDCF17
:100770008781DB018C93442311F087E001C082E084
:10078000838381E0089580E00895AF92BF92CF9275
:10079000DF92EF92FF920F931F93CF93DF935C0151
:1007A000C62F142FD22E6E7F0E947503D82F811171
:1007B00029C0002339F06D2DC5010E949F0301500F
:1007C0008111F7CF6C2F6160412FC5010E94750325
:1007D000D82F811114C0CFEFCC0DCF3F81F087010E
:1007E0000F5F1F4F41E0C11140E0B701C5010E94FA
:1007F000B003C150882311F07801EFCFD5E087E036
:10080000F50183838D2FDF91CF911F910F91FF9081
:10081000EF90DF90CF90BF90AF900895AF92BF92CE
:10082000CF92EF92FF920F931F93CF93DF935C01D0
:10083000C22F6E7F0E947503182F811119C00023EB
:1008400041F06C2FC5010E949F0301508111F7CF29
:1008500015E0CE2DDF2DEC0CEC1639F06991C501B9
:100860000E949F038111F8CF15E087E0F501838393
:10087000812FDF91CF911F910F91FF90EF90CF903B
:10088000BF90AF9008958F929F92AF92BF92CF92F8
:10089000DF92EF92FF920F931F93CF93DF93EC01C0
:1008A0006A017B0148015901B901A801E3E076958D
:1008B000679557954795EA95D1F7D901C801F6E1B3
:1008C000B695A79597958795FA95D1F72C8122FD36
:1008D00008C07695679557954795B695A7959795CE
:1008E00087954C155D056E057F0508F498C0C81600
:1008F000D906EA06FB0608F492C08C8182FD04C08A
:10090000CC0CDD1CEE1CFF1CC501B401A701960137
:100910000E9453058FEF90E0A0E0B0E019EF281798
:1009200039074A075B0758F0880F991FAA1FBB1F9A
:100930001D3F0CF481601F5F173089F749C017FF16
:1009400047C0D701C601F3E0880F991FAA1FBB1F3C
:10095000FA95D1F7881A990AAA0ABB0A812F012EA3
:10096000000C990B1E3FDCF42DEF3FEFA901481B53
:10097000590B04C0880C991CAA1CBB1C4A95D2F7C1
:10098000D701C601B695A79597958795BC01CD016E
:10099000680D791D8A1D9B1DA701960116C003963F
:1009A000A701960104C0220F331F441F551F8A95CB
:1009B000D2F7DA01C901B695A79597958795BC013D
:1009C000CD01680D791D8A1D9B1D0E9453051DC018
:1009D00083E0810FA701960104C0220F331F441F3B
:1009E000551F8A95D2F7DA01C901B695A795979553
:1009F0008795BC01CD01680D791D8A1D9B1D0E9444
:100A000053052150310941095109932F9F70812FBE
:100A10008295807F892B8F832E8381E001C080E0C7
:100A2000DF91CF911F910F91FF90EF90DF90CF90CA
:100A3000BF90AF909F908F900895FC01218125FF7A
:100A4000FCCF608308950F931F93CF93DF938C01A6
:100A5000EB016991662321F0C8010E941D05F9CFC1
:100A6000DF91CF911F910F9108950F931F93CF9313
:100A7000DF93CDB7DEB76497CDBFDEBF8C01CB016E
:100A8000BE016F5F7F4F0E947505BE016F5F7F4F94
:100A9000C8010E9423056496CDBFDEBFDF91CF91D0
:100AA0001F910F910895A1E21A2EAA1BBB1BFD01F5
:100AB0000DC0AA1FBB1FEE1FFF1FA217B307E4073D
:100AC000F50720F0A21BB30BE40BF50B661F771F95
:100AD000881F991F1A9469F7609570958095909575
:100AE0009B01AC01BD01CF0108954532510520F4B1
:100AF000423010F00C948005FB011082CB01089568
:100B0000BB274A3031F4992322F4BDE290958195B8
:100B10009F4F0C948C05BB27FB015527AA27880FF4
:100B2000991FAA1FA41710F0A41B83955051B9F761
:100B3000A05DAA3308F0A95DA193009779F7B111E0
:100B4000B1931192CB010C94A505DC01FC01672F38
:100B500071917723E1F7329704C07C916D93708394
:0E0B60006291AE17BF07C8F30895F894FFCF57
:100B6E00706F6E0077746F0073726F00637A770028
:100B7E0070696100736F62006E6965000A0D5465DD
:100B8E006D70657261747572613A0A0D002E002ADD
:100B9E0043003230002D002020004A657374206718
:0C0BAE006F647A696E613A0A0D003A002B
:00000001FF
