S01100005350495F74696D65722E73726563A7
S11300000C94FE000C9417010C9417010C94170126
S11300100C9417010C9417010C9417010C941701FC
S11300200C9417010C9417010C9417010C941701EC
S11300300C9417010C9417010C9417010C941701DC
S11300400C9417010C9417010C9417010C941701CC
S11300500C9417010C9417010C9417010C941701BC
S11300600C9417010C9417010C9417010C941701AC
S11300700C9417010C9417010C9417010C9417019C
S11300800C9417010C9417010C9417010C9417018C
S11300900C9417010C9417010C9417010C9417017C
S11300A00C9417010C9417010C9417010C9417016C
S11300B00C9417010C9417010C9417010C9417015C
S11300C00C9417010C9417010C9417010C9417014C
S11300D00C9417010C9417010C9417010C9417013C
S11300E00C9417010C9417010C9417010C9417012C
S11300F00C9417010C9417010C9417010C9417011C
S11301000C9417010C9417010C9417010C9417010B
S11301100C9417010C9417010C9417010C941701FB
S11301200C9417010C9417010C9417010C941701EB
S11301300C9417010C9417010C9417010C941701DB
S11301400C9417010C9417010C9417010C941701CB
S11301500C9417010C9417010C9417010C941701BB
S11301600C9417010C9417010C9417010C941701AB
S11301700C9417010C9417010C9417010C9417019B
S11301800C9417010C9417010C9417010C9417018B
S11301900C9417010C9417010C9417010C9417017B
S11301A00C9417010C9417010C9417010C9417016B
S11301B00C9417010C9417010C9417010C9417015B
S11301C00C9417010C9417010C9417010C9417014B
S11301D00C9417010C9417010C9417010C9417013B
S11301E00C9417010C9417010C9417010C9417012B
S11301F00C9417010C9417010C94170111241FBEC1
S1130200CFEFCDBFDFE3DEBF00E00CBF10E2A0E024
S1130210B0E2E6EAF2E000E00BBF02C007900D9204
S1130220A030B107D9F70E9419010C9451010C9424
S11302300000C1E0C093600683E08093B000E0E476
S1130240F6E08089877C8861808B0E943E01E0E82B
S1130250F4E010828BE9858388E081831282C48371
S1130260E7E6F6E081E080832FEF37EA91E621505C
S113027030409040E1F700C00000F5CF82E0809369
S11302805000E0E5F0E0818181FFFDCF88ED84BF7F
S113029081E080934000EEE4F6E080818661808313
S10902A00895F894FFCF5D
S9030000FC
